{"abi":[{"type":"constructor","inputs":[{"name":"admin","type":"address","internalType":"address"},{"name":"usdc","type":"address","internalType":"address"},{"name":"ethUsdFeed","type":"address","internalType":"address"},{"name":"uniswapRouter","type":"address","internalType":"address"},{"name":"bankCapUSD6","type":"uint256","internalType":"uint256"},{"name":"withdrawalThresholdUSD6","type":"uint256","internalType":"uint256"},{"name":"defaultSlippageBps","type":"uint256","internalType":"uint256"}],"stateMutability":"nonpayable"},{"type":"receive","stateMutability":"payable"},{"type":"function","name":"DEFAULT_ADMIN_ROLE","inputs":[],"outputs":[{"name":"","type":"bytes32","internalType":"bytes32"}],"stateMutability":"view"},{"type":"function","name":"ETH_USD_FEED","inputs":[],"outputs":[{"name":"","type":"address","internalType":"contract AggregatorV3Interface"}],"stateMutability":"view"},{"type":"function","name":"FEED_DECIMALS","inputs":[],"outputs":[{"name":"","type":"uint8","internalType":"uint8"}],"stateMutability":"view"},{"type":"function","name":"MAX_SLIPPAGE_BPS","inputs":[],"outputs":[{"name":"","type":"uint256","internalType":"uint256"}],"stateMutability":"view"},{"type":"function","name":"MIN_SLIPPAGE_BPS","inputs":[],"outputs":[{"name":"","type":"uint256","internalType":"uint256"}],"stateMutability":"view"},{"type":"function","name":"ORACLE_HEARTBEAT","inputs":[],"outputs":[{"name":"","type":"uint32","internalType":"uint32"}],"stateMutability":"view"},{"type":"function","name":"PAUSER_ROLE","inputs":[],"outputs":[{"name":"","type":"bytes32","internalType":"bytes32"}],"stateMutability":"view"},{"type":"function","name":"TREASURER_ROLE","inputs":[],"outputs":[{"name":"","type":"bytes32","internalType":"bytes32"}],"stateMutability":"view"},{"type":"function","name":"UNISWAP_ROUTER","inputs":[],"outputs":[{"name":"","type":"address","internalType":"contract IUniswapV2Router02"}],"stateMutability":"view"},{"type":"function","name":"USDC","inputs":[],"outputs":[{"name":"","type":"address","internalType":"contract IERC20"}],"stateMutability":"view"},{"type":"function","name":"USD_DECIMALS","inputs":[],"outputs":[{"name":"","type":"uint8","internalType":"uint8"}],"stateMutability":"view"},{"type":"function","name":"VERSION","inputs":[],"outputs":[{"name":"","type":"string","internalType":"string"}],"stateMutability":"view"},{"type":"function","name":"WITHDRAWAL_THRESHOLD_USD6","inputs":[],"outputs":[{"name":"","type":"uint256","internalType":"uint256"}],"stateMutability":"view"},{"type":"function","name":"depositETH","inputs":[],"outputs":[],"stateMutability":"payable"},{"type":"function","name":"depositToken","inputs":[{"name":"token","type":"address","internalType":"address"},{"name":"amountToken","type":"uint256","internalType":"uint256"},{"name":"minAmountOutUSDC","type":"uint256","internalType":"uint256"}],"outputs":[],"stateMutability":"nonpayable"},{"type":"function","name":"depositUSDC","inputs":[{"name":"amountUSDC","type":"uint256","internalType":"uint256"}],"outputs":[],"stateMutability":"nonpayable"},{"type":"function","name":"getBalanceUSD6","inputs":[{"name":"user","type":"address","internalType":"address"},{"name":"token","type":"address","internalType":"address"}],"outputs":[{"name":"","type":"uint256","internalType":"uint256"}],"stateMutability":"view"},{"type":"function","name":"getETHPrice","inputs":[],"outputs":[{"name":"price","type":"uint256","internalType":"uint256"},{"name":"decimals","type":"uint8","internalType":"uint8"}],"stateMutability":"view"},{"type":"function","name":"getMinAmountOut","inputs":[{"name":"amountIn","type":"uint256","internalType":"uint256"},{"name":"path","type":"address[]","internalType":"address[]"}],"outputs":[{"name":"minAmountOut","type":"uint256","internalType":"uint256"}],"stateMutability":"view"},{"type":"function","name":"getRoleAdmin","inputs":[{"name":"role","type":"bytes32","internalType":"bytes32"}],"outputs":[{"name":"","type":"bytes32","internalType":"bytes32"}],"stateMutability":"view"},{"type":"function","name":"getTotalBalanceUSD6","inputs":[{"name":"user","type":"address","internalType":"address"}],"outputs":[{"name":"","type":"uint256","internalType":"uint256"}],"stateMutability":"view"},{"type":"function","name":"grantRole","inputs":[{"name":"role","type":"bytes32","internalType":"bytes32"},{"name":"account","type":"address","internalType":"address"}],"outputs":[],"stateMutability":"nonpayable"},{"type":"function","name":"hasRole","inputs":[{"name":"role","type":"bytes32","internalType":"bytes32"},{"name":"account","type":"address","internalType":"address"}],"outputs":[{"name":"","type":"bool","internalType":"bool"}],"stateMutability":"view"},{"type":"function","name":"pause","inputs":[],"outputs":[],"stateMutability":"nonpayable"},{"type":"function","name":"paused","inputs":[],"outputs":[{"name":"","type":"bool","internalType":"bool"}],"stateMutability":"view"},{"type":"function","name":"previewETHToUSD6","inputs":[{"name":"weiAmount","type":"uint256","internalType":"uint256"}],"outputs":[{"name":"usd6Amount","type":"uint256","internalType":"uint256"}],"stateMutability":"view"},{"type":"function","name":"previewUSD6ToETH","inputs":[{"name":"usd6Amount","type":"uint256","internalType":"uint256"}],"outputs":[{"name":"weiAmount","type":"uint256","internalType":"uint256"}],"stateMutability":"view"},{"type":"function","name":"renounceRole","inputs":[{"name":"role","type":"bytes32","internalType":"bytes32"},{"name":"callerConfirmation","type":"address","internalType":"address"}],"outputs":[],"stateMutability":"nonpayable"},{"type":"function","name":"rescue","inputs":[{"name":"token","type":"address","internalType":"address"},{"name":"amount","type":"uint256","internalType":"uint256"}],"outputs":[],"stateMutability":"nonpayable"},{"type":"function","name":"revokeRole","inputs":[{"name":"role","type":"bytes32","internalType":"bytes32"},{"name":"account","type":"address","internalType":"address"}],"outputs":[],"stateMutability":"nonpayable"},{"type":"function","name":"s_bankCapUSD6","inputs":[],"outputs":[{"name":"","type":"uint256","internalType":"uint256"}],"stateMutability":"view"},{"type":"function","name":"s_defaultSlippageBps","inputs":[],"outputs":[{"name":"","type":"uint256","internalType":"uint256"}],"stateMutability":"view"},{"type":"function","name":"s_depositCount","inputs":[],"outputs":[{"name":"","type":"uint256","internalType":"uint256"}],"stateMutability":"view"},{"type":"function","name":"s_swapCount","inputs":[],"outputs":[{"name":"","type":"uint256","internalType":"uint256"}],"stateMutability":"view"},{"type":"function","name":"s_totalUSD6","inputs":[],"outputs":[{"name":"","type":"uint256","internalType":"uint256"}],"stateMutability":"view"},{"type":"function","name":"s_withdrawCount","inputs":[],"outputs":[{"name":"","type":"uint256","internalType":"uint256"}],"stateMutability":"view"},{"type":"function","name":"setBankCapUSD6","inputs":[{"name":"newCap","type":"uint256","internalType":"uint256"}],"outputs":[],"stateMutability":"nonpayable"},{"type":"function","name":"setDefaultSlippage","inputs":[{"name":"newSlippageBps","type":"uint256","internalType":"uint256"}],"outputs":[],"stateMutability":"nonpayable"},{"type":"function","name":"supportsInterface","inputs":[{"name":"interfaceId","type":"bytes4","internalType":"bytes4"}],"outputs":[{"name":"","type":"bool","internalType":"bool"}],"stateMutability":"view"},{"type":"function","name":"unpause","inputs":[],"outputs":[],"stateMutability":"nonpayable"},{"type":"function","name":"withdrawETH","inputs":[{"name":"usd6Amount","type":"uint256","internalType":"uint256"}],"outputs":[],"stateMutability":"nonpayable"},{"type":"function","name":"withdrawUSDC","inputs":[{"name":"usd6Amount","type":"uint256","internalType":"uint256"}],"outputs":[],"stateMutability":"nonpayable"},{"type":"event","name":"KBV3_BankCapUpdated","inputs":[{"name":"newCapUSD6","type":"uint256","indexed":false,"internalType":"uint256"}],"anonymous":false},{"type":"event","name":"KBV3_Deposit","inputs":[{"name":"user","type":"address","indexed":true,"internalType":"address"},{"name":"token","type":"address","indexed":true,"internalType":"address"},{"name":"amountToken","type":"uint256","indexed":false,"internalType":"uint256"},{"name":"creditedUSD6","type":"uint256","indexed":false,"internalType":"uint256"}],"anonymous":false},{"type":"event","name":"KBV3_SlippageUpdated","inputs":[{"name":"newSlippageBps","type":"uint256","indexed":false,"internalType":"uint256"}],"anonymous":false},{"type":"event","name":"KBV3_TokenSwapped","inputs":[{"name":"user","type":"address","indexed":true,"internalType":"address"},{"name":"tokenIn","type":"address","indexed":true,"internalType":"address"},{"name":"amountIn","type":"uint256","indexed":false,"internalType":"uint256"},{"name":"amountOutUSDC","type":"uint256","indexed":false,"internalType":"uint256"}],"anonymous":false},{"type":"event","name":"KBV3_Withdrawal","inputs":[{"name":"user","type":"address","indexed":true,"internalType":"address"},{"name":"token","type":"address","indexed":true,"internalType":"address"},{"name":"debitedUSD6","type":"uint256","indexed":false,"internalType":"uint256"},{"name":"amountTokenSent","type":"uint256","indexed":false,"internalType":"uint256"}],"anonymous":false},{"type":"event","name":"Paused","inputs":[{"name":"account","type":"address","indexed":false,"internalType":"address"}],"anonymous":false},{"type":"event","name":"RoleAdminChanged","inputs":[{"name":"role","type":"bytes32","indexed":true,"internalType":"bytes32"},{"name":"previousAdminRole","type":"bytes32","indexed":true,"internalType":"bytes32"},{"name":"newAdminRole","type":"bytes32","indexed":true,"internalType":"bytes32"}],"anonymous":false},{"type":"event","name":"RoleGranted","inputs":[{"name":"role","type":"bytes32","indexed":true,"internalType":"bytes32"},{"name":"account","type":"address","indexed":true,"internalType":"address"},{"name":"sender","type":"address","indexed":true,"internalType":"address"}],"anonymous":false},{"type":"event","name":"RoleRevoked","inputs":[{"name":"role","type":"bytes32","indexed":true,"internalType":"bytes32"},{"name":"account","type":"address","indexed":true,"internalType":"address"},{"name":"sender","type":"address","indexed":true,"internalType":"address"}],"anonymous":false},{"type":"event","name":"Unpaused","inputs":[{"name":"account","type":"address","indexed":false,"internalType":"address"}],"anonymous":false},{"type":"error","name":"AccessControlBadConfirmation","inputs":[]},{"type":"error","name":"AccessControlUnauthorizedAccount","inputs":[{"name":"account","type":"address","internalType":"address"},{"name":"neededRole","type":"bytes32","internalType":"bytes32"}]},{"type":"error","name":"AddressEmptyCode","inputs":[{"name":"target","type":"address","internalType":"address"}]},{"type":"error","name":"AddressInsufficientBalance","inputs":[{"name":"account","type":"address","internalType":"address"}]},{"type":"error","name":"EnforcedPause","inputs":[]},{"type":"error","name":"ExpectedPause","inputs":[]},{"type":"error","name":"FailedInnerCall","inputs":[]},{"type":"error","name":"KBV3_CapExceeded","inputs":[{"name":"requested","type":"uint256","internalType":"uint256"},{"name":"available","type":"uint256","internalType":"uint256"}]},{"type":"error","name":"KBV3_CounterOverflow","inputs":[]},{"type":"error","name":"KBV3_ETHTransferFailed","inputs":[]},{"type":"error","name":"KBV3_InsufficientBalance","inputs":[{"name":"requested","type":"uint256","internalType":"uint256"},{"name":"balance","type":"uint256","internalType":"uint256"}]},{"type":"error","name":"KBV3_InvalidParameters","inputs":[]},{"type":"error","name":"KBV3_InvalidSlippage","inputs":[]},{"type":"error","name":"KBV3_OracleCompromised","inputs":[]},{"type":"error","name":"KBV3_StalePrice","inputs":[]},{"type":"error","name":"KBV3_SwapFailed","inputs":[]},{"type":"error","name":"KBV3_UnsupportedToken","inputs":[]},{"type":"error","name":"KBV3_UseDepositETH","inputs":[]},{"type":"error","name":"KBV3_WithdrawalLimitExceeded","inputs":[{"name":"requested","type":"uint256","internalType":"uint256"},{"name":"limit","type":"uint256","internalType":"uint256"}]},{"type":"error","name":"KBV3_ZeroAmount","inputs":[]},{"type":"error","name":"ReentrancyGuardReentrantCall","inputs":[]},{"type":"error","name":"SafeERC20FailedOperation","inputs":[{"name":"token","type":"address","internalType":"address"}]}],"bytecode":{"object":"0x610120604052348015610010575f80fd5b5060405161275538038061275583398101604081905261002f916102b8565b6001805460ff191681556002556001600160a01b038716158061005957506001600160a01b038616155b8061006b57506001600160a01b038516155b8061007d57506001600160a01b038416155b1561009a57604051629bfaef60e41b815260040160405180910390fd5b8215806100a5575081155b806100af57508282115b156100cc57604051629bfaef60e41b815260040160405180910390fd5b60328110806100dc57506101f481115b156100fa576040516345e167e160e11b815260040160405180910390fd5b6101045f886101f4565b5061012f7f65d7a28e3265b37a6474929f336521b332c1681b933f6cb9f3376673440d862a886101f4565b5061015a7f3496e2e73c4d42b75d702e60d9e48102720b8691234415963a5a857b86425d07886101f4565b506001600160a01b03808716608052851660a08190526040805163313ce56760e01b8152905163313ce567916004808201926020929091908290030181865afa1580156101a9573d5f803e3d5ffd5b505050506040513d601f19601f820116820180604052508101906101cd9190610326565b60ff1660c0526001600160a01b0390931660e052610100526005556006555061034d915050565b5f828152602081815260408083206001600160a01b038516845290915281205460ff16610294575f838152602081815260408083206001600160a01b03861684529091529020805460ff1916600117905561024c3390565b6001600160a01b0316826001600160a01b0316847f2f8788117e7eff1d82e926ec794901d17c78024a50270940304540a733656f0d60405160405180910390a4506001610297565b505f5b92915050565b80516001600160a01b03811681146102b3575f80fd5b919050565b5f805f805f805f60e0888a0312156102ce575f80fd5b6102d78861029d565b96506102e56020890161029d565b95506102f36040890161029d565b94506103016060890161029d565b608089015160a08a015160c0909a0151989b979a509598909795969095945092505050565b5f60208284031215610336575f80fd5b815160ff81168114610346575f80fd5b9392505050565b60805160a05160c05160e0516101005161235b6103fa5f395f818161048801528181610fc9015261130701525f81816106fb01528181610c9b01528181610d6201526111f401525f81816104550152611bd101525f818161060d0152611ad501525f8181610537015281816105b201528181610c2701528181610d1501528181610e6101528181610f8701528181611119015281816111860152818161169401526116d7015261235b5ff3fe60806040526004361061024c575f3560e01c806390f9e02811610134578063d8264920116100b3578063eeecc08a11610078578063eeecc08a146107a3578063f0a3a97c146107c2578063f14210a6146107f5578063f6326fb314610814578063f688bcfb1461081c578063ffa1ad741461083b575f80fd5b8063d8264920146106ea578063db81f99b1461071d578063e229cd761461073c578063e52c69c314610751578063e63ab1e914610770575f80fd5b8063a217fddf116100f9578063a217fddf14610663578063a56fe88e14610676578063a607a8d91461068b578063cac2e25f146106b6578063d547741f146106cb575f80fd5b806390f9e0281461057157806391d14854146105dd57806394d8572a146105fc57806399c6d2de1461062f5780639d7ade001461064e575f80fd5b80634a83c3b7116101cb5780637608d289116101905780637608d289146104aa57806378234a3b146104c95780637a4e4ecf146104de5780638456cb59146104fd578063881c36d31461051157806389a3027114610526575f80fd5b80634a83c3b7146103ee5780635c975abb146104185780635eb432f11461042f578063679c1eda146104445780636ebbaa8514610477575f80fd5b806336568abe1161021157806336568abe146103395780633f4ba83a1461035857806344bd1afd1461036c57806349a422461461038b5780634a4ba768146103cf575f80fd5b806301ffc9a71461026e57806319530a82146102a2578063248a9ca3146102c45780632f2ff15d146102f25780632f6ee69514610313575f80fd5b3661026a57604051632dca2c0360e21b815260040160405180910390fd5b5f80fd5b348015610279575f80fd5b5061028d610288366004611eb5565b610878565b60405190151581526020015b60405180910390f35b3480156102ad575f80fd5b506102b6603281565b604051908152602001610299565b3480156102cf575f80fd5b506102b66102de366004611edc565b5f9081526020819052604090206001015490565b3480156102fd575f80fd5b5061031161030c366004611f0e565b6108ae565b005b34801561031e575f80fd5b50610327600681565b60405160ff9091168152602001610299565b348015610344575f80fd5b50610311610353366004611f0e565b6108d8565b348015610363575f80fd5b50610311610910565b348015610377575f80fd5b50610311610386366004611edc565b610945565b348015610396575f80fd5b506102b66103a5366004611f38565b6001600160a01b039182165f90815260036020908152604080832093909416825291909152205490565b3480156103da575f80fd5b506103116103e9366004611edc565b6109ba565b3480156103f9575f80fd5b50610403610e1081565b60405163ffffffff9091168152602001610299565b348015610423575f80fd5b5060015460ff1661028d565b34801561043a575f80fd5b506102b660045481565b34801561044f575f80fd5b506103277f000000000000000000000000000000000000000000000000000000000000000081565b348015610482575f80fd5b506102b67f000000000000000000000000000000000000000000000000000000000000000081565b3480156104b5575f80fd5b506102b66104c4366004611edc565b610a18565b3480156104d4575f80fd5b506102b660085481565b3480156104e9575f80fd5b506103116104f8366004611f60565b610a22565b348015610508575f80fd5b50610311610ad4565b34801561051c575f80fd5b506102b660055481565b348015610531575f80fd5b506105597f000000000000000000000000000000000000000000000000000000000000000081565b6040516001600160a01b039091168152602001610299565b34801561057c575f80fd5b506102b661058b366004611f88565b6001600160a01b039081165f908152600360209081526040808320838052909152808220547f000000000000000000000000000000000000000000000000000000000000000090931682529020540190565b3480156105e8575f80fd5b5061028d6105f7366004611f0e565b610b06565b348015610607575f80fd5b506105597f000000000000000000000000000000000000000000000000000000000000000081565b34801561063a575f80fd5b50610311610649366004611fa1565b610b2e565b348015610659575f80fd5b506102b660065481565b34801561066e575f80fd5b506102b65f81565b348015610681575f80fd5b506102b660095481565b348015610696575f80fd5b5061069f610f3f565b6040805192835260ff909116602083015201610299565b3480156106c1575f80fd5b506102b660075481565b3480156106d6575f80fd5b506103116106e5366004611f0e565b610f51565b3480156106f5575f80fd5b506105597f000000000000000000000000000000000000000000000000000000000000000081565b348015610728575f80fd5b50610311610737366004611edc565b610f75565b348015610747575f80fd5b506102b66101f481565b34801561075c575f80fd5b506102b661076b366004611edc565b6111e6565b34801561077b575f80fd5b506102b67f65d7a28e3265b37a6474929f336521b332c1681b933f6cb9f3376673440d862a81565b3480156107ae575f80fd5b506102b66107bd366004611fd1565b6111f0565b3480156107cd575f80fd5b506102b67f3496e2e73c4d42b75d702e60d9e48102720b8691234415963a5a857b86425d0781565b348015610800575f80fd5b5061031161080f366004611edc565b6112d3565b610311611533565b348015610827575f80fd5b50610311610836366004611edc565b61161f565b348015610846575f80fd5b5061086b60405180604001604052806005815260200164332e302e3160d81b81525081565b604051610299919061204b565b5f6001600160e01b03198216637965db0b60e01b14806108a857506301ffc9a760e01b6001600160e01b03198316145b92915050565b5f828152602081905260409020600101546108c88161175d565b6108d28383611767565b50505050565b6001600160a01b03811633146109015760405163334bd91960e11b815260040160405180910390fd5b61090b82826117f6565b505050565b7f65d7a28e3265b37a6474929f336521b332c1681b933f6cb9f3376673440d862a61093a8161175d565b61094261185f565b50565b5f61094f8161175d565b603282108061095f57506101f482115b1561097d576040516345e167e160e11b815260040160405180910390fd5b60068290556040518281527f30a58b1509dd20d540d746c09f64ed6fa5c655f26ed7363bc341d8866d81e59c906020015b60405180910390a15050565b5f6109c48161175d565b815f036109e357604051629bfaef60e41b815260040160405180910390fd5b60058290556040518281527f13f360a2a51954a5a74d540d9d95b2d7b5d48c66260c98245be811ba6d4b675c906020016109ae565b5f6108a8826118b1565b7f3496e2e73c4d42b75d702e60d9e48102720b8691234415963a5a857b86425d07610a4c8161175d565b6001600160a01b038316610ac0576040515f90339084908381818185875af1925050503d805f8114610a99576040519150601f19603f3d011682016040523d82523d5f602084013e610a9e565b606091505b50509050806108d257604051635488f5a360e11b815260040160405180910390fd5b61090b6001600160a01b03841633846118e3565b7f65d7a28e3265b37a6474929f336521b332c1681b933f6cb9f3376673440d862a610afe8161175d565b610942611942565b5f918252602082815260408084206001600160a01b0393909316845291905290205460ff1690565b610b3661197d565b610b3e6119a1565b81805f03610b5f576040516387dc395f60e01b815260040160405180910390fd5b5f610b6c60015f196120a8565b60075410610b8d5760405163ca16703b60e01b815260040160405180910390fd5b6002610b99565b610c25565b6001816002811115610bad57610bad612080565b03610bdf57610bbe60015f196120a8565b60085410610b945760405163ca16703b60e01b815260040160405180910390fd5b6002816002811115610bf357610bf3612080565b03610c2557610c0460015f196120a8565b60095410610c255760405163ca16703b60e01b815260040160405180910390fd5b7f00000000000000000000000000000000000000000000000000000000000000006001600160a01b0316866001600160a01b031603610c7757604051635a1ad2fd60e01b815260040160405180910390fd5b610c8c6001600160a01b0387163330886119c9565b610cc06001600160a01b0387167f000000000000000000000000000000000000000000000000000000000000000087611a02565b6040805160028082526060820183525f9260208301908036833701905050905086815f81518110610cf357610cf36120cf565b60200260200101906001600160a01b031690816001600160a01b0316815250507f000000000000000000000000000000000000000000000000000000000000000081600181518110610d4757610d476120cf565b6001600160a01b0392831660209182029290920101526060907f0000000000000000000000000000000000000000000000000000000000000000166338ed173988888530610d974261012c6120e3565b6040518663ffffffff1660e01b8152600401610db79594939291906120f6565b5f604051808303815f875af1925050508015610df457506040513d5f823e601f3d908101601f19168201604052610df19190810190612166565b60015b610e115760405163505ddeab60e01b815260040160405180910390fd5b90505f8160018351610e2391906120a8565b81518110610e3357610e336120cf565b60200260200101519050610e4681611a91565b335f8181526003602090815260408083206001600160a01b037f0000000000000000000000000000000000000000000000000000000000000000811685529083529281902080546009805460019081019091556007805490910190558681019182905582518e81529384018790529490938e169290917fdd335a68e345c3481a839362e0dbe3102b6d19b30fdcdfa45e6ecff0e01f05ec910160405180910390a3604080518b8152602081018590526001600160a01b038d169133917f7d1067b9d2270d7bc0594681d4f882c890c59c44136b9f90ceb748ee477cab8f910160405180910390a3505050505050505061090b6001600255565b5f80610f49611acd565b915091509091565b5f82815260208190526040902060010154610f6b8161175d565b6108d283836117f6565b610f7d61197d565b610f856119a1565b7f000000000000000000000000000000000000000000000000000000000000000081805f03610fc7576040516387dc395f60e01b815260040160405180910390fd5b7f0000000000000000000000000000000000000000000000000000000000000000808211156110185760405163a92fa7f960e01b815260048101839052602481018290526044015b60405180910390fd5b335f9081526003602090815260408083206001600160a01b038716845290915290205480831115611066576040516302631a5560e11b8152600481018490526024810182905260440161100f565b6001611072565b6110fe565b600181600281111561108657611086612080565b036110b85761109760015f196120a8565b6008541061106d5760405163ca16703b60e01b815260040160405180910390fd5b60028160028111156110cc576110cc612080565b036110fe576110dd60015f196120a8565b600954106110fe5760405163ca16703b60e01b815260040160405180910390fd5b335f8181526003602090815260408083206001600160a01b037f0000000000000000000000000000000000000000000000000000000000000000168085529252909120805489810391829055600480548b810390915560088054600101905590939192909161116e91908b6118e3565b604080518a8152602081018b90526001600160a01b037f0000000000000000000000000000000000000000000000000000000000000000169133917f479a9aaec97cca253915dc4cb7ac5058bfd56948847cccdb1640785edd180980910160405180910390a350505050505050506109426001600255565b5f6108a882611bf8565b5f807f00000000000000000000000000000000000000000000000000000000000000006001600160a01b031663d06ca61f8686866040518463ffffffff1660e01b81526004016112429392919061222e565b5f60405180830381865afa15801561125c573d5f803e3d5ffd5b505050506040513d5f823e601f3d908101601f191682016040526112839190810190612166565b90505f816001835161129591906120a8565b815181106112a5576112a56120cf565b60200260200101519050612710600654612710038202816112c8576112c8612275565b049695505050505050565b6112db61197d565b6112e36119a1565b5f81805f03611305576040516387dc395f60e01b815260040160405180910390fd5b7f0000000000000000000000000000000000000000000000000000000000000000808211156113515760405163a92fa7f960e01b8152600481018390526024810182905260440161100f565b335f9081526003602090815260408083206001600160a01b03871684529091529020548083111561139f576040516302631a5560e11b8152600481018490526024810182905260440161100f565b60016113ab565b611437565b60018160028111156113bf576113bf612080565b036113f1576113d060015f196120a8565b600854106113a65760405163ca16703b60e01b815260040160405180910390fd5b600281600281111561140557611405612080565b036114375761141660015f196120a8565b600954106114375760405163ca16703b60e01b815260040160405180910390fd5b5f611441876118b1565b335f81815260036020908152604080832083805290915280822080548c810391829055600480548e810390915560088054600101905592519596509490939192919086908381818185875af1925050503d805f81146114bb576040519150601f19603f3d011682016040523d82523d5f602084013e6114c0565b606091505b50509050806114e257604051635488f5a360e11b815260040160405180910390fd5b604080518c8152602081018790525f9133917f479a9aaec97cca253915dc4cb7ac5058bfd56948847cccdb1640785edd180980910160405180910390a3505050505050505050506109426001600255565b61153b61197d565b6115436119a1565b34805f03611564576040516387dc395f60e01b815260040160405180910390fd5b5f61157160015f196120a8565b600754106115925760405163ca16703b60e01b815260040160405180910390fd5b5f61159c34611bf8565b90506115a781611a91565b335f818152600360209081526040808320838052825280832080548681019182905560078054600101905582513481529384018790529490939290917f7d1067b9d2270d7bc0594681d4f882c890c59c44136b9f90ceb748ee477cab8f910160405180910390a3505050505061161d6001600255565b565b61162761197d565b61162f6119a1565b80805f03611650576040516387dc395f60e01b815260040160405180910390fd5b5f61165d60015f196120a8565b6007541061167e5760405163ca16703b60e01b815260040160405180910390fd5b61168783611a91565b6116bc6001600160a01b037f0000000000000000000000000000000000000000000000000000000000000000163330866119c9565b335f8181526003602090815260408083206001600160a01b037f0000000000000000000000000000000000000000000000000000000000000000168085529083529281902080548881019182905560078054600101905582518981529384018990529490939290917f7d1067b9d2270d7bc0594681d4f882c890c59c44136b9f90ceb748ee477cab8f910160405180910390a3505050506109426001600255565b6109428133611c21565b5f6117728383610b06565b6117ef575f838152602081815260408083206001600160a01b03861684529091529020805460ff191660011790556117a73390565b6001600160a01b0316826001600160a01b0316847f2f8788117e7eff1d82e926ec794901d17c78024a50270940304540a733656f0d60405160405180910390a45060016108a8565b505f6108a8565b5f6118018383610b06565b156117ef575f838152602081815260408083206001600160a01b0386168085529252808320805460ff1916905551339286917ff6391f5c32d9c69d2a47ea670b442974b53935d1edc7fd64eb21e047a839171b9190a45060016108a8565b611867611c5e565b6001805460ff191690557f5db9ee0a495bf2e6ff9c91a7834c1ba4fdd244a5e8aa4e537bd38aeae4b073aa335b6040516001600160a01b03909116815260200160405180910390a1565b5f805f6118bc611acd565b91509150818160ff16600c01600a0a8502816118da576118da612275565b04949350505050565b6040516001600160a01b0383811660248301526044820183905261090b91859182169063a9059cbb906064015b604051602081830303815290604052915060e01b6020820180516001600160e01b038381831617835250505050611c81565b61194a61197d565b6001805460ff1916811790557f62e78cea01bee320cd4e420270b5ea74000d11b0c9f74754ebdbfc544b05a25833611894565b60015460ff161561161d5760405163d93c066560e01b815260040160405180910390fd5b60028054036119c357604051633ee5aeb560e01b815260040160405180910390fd5b60028055565b6040516001600160a01b0384811660248301528381166044830152606482018390526108d29186918216906323b872dd90608401611910565b604080516001600160a01b038416602482015260448082018490528251808303909101815260649091019091526020810180516001600160e01b031663095ea7b360e01b179052611a538482611ce2565b6108d2576040516001600160a01b0384811660248301525f6044830152611a8791869182169063095ea7b390606401611910565b6108d28482611c81565b60045460055482820181811115611ac55760405163f73caa4f60e01b8152600481018290526024810183905260440161100f565b600455505050565b5f805f805f807f00000000000000000000000000000000000000000000000000000000000000006001600160a01b031663feaf968c6040518163ffffffff1660e01b815260040160a060405180830381865afa158015611b2f573d5f803e3d5ffd5b505050506040513d601f19601f82011682018060405250810190611b5391906122a2565b9450945050935093505f83131580611b8257508369ffffffffffffffffffff168169ffffffffffffffffffff16105b15611ba057604051635785e0bd60e11b815260040160405180910390fd5b610e10611bad83426120a8565b1115611bcc5760405163a69eb5f760e01b815260040160405180910390fd5b5090947f0000000000000000000000000000000000000000000000000000000000000000945092505050565b5f805f611c03611acd565b915091508060ff16600c01600a0a828502816118da576118da612275565b611c2b8282610b06565b611c5a5760405163e2517d3f60e01b81526001600160a01b03821660048201526024810183905260440161100f565b5050565b60015460ff1661161d57604051638dfc202b60e01b815260040160405180910390fd5b5f611c956001600160a01b03841683611d83565b905080515f14158015611cb9575080806020019051810190611cb791906122f0565b155b1561090b57604051635274afe760e01b81526001600160a01b038416600482015260240161100f565b5f805f846001600160a01b031684604051611cfd919061230f565b5f604051808303815f865af19150503d805f8114611d36576040519150601f19603f3d011682016040523d82523d5f602084013e611d3b565b606091505b5091509150818015611d65575080511580611d65575080806020019051810190611d6591906122f0565b8015611d7a57505f856001600160a01b03163b115b95945050505050565b6060611d9083835f611d97565b9392505050565b606081471015611dbc5760405163cd78605960e01b815230600482015260240161100f565b5f80856001600160a01b03168486604051611dd7919061230f565b5f6040518083038185875af1925050503d805f8114611e11576040519150601f19603f3d011682016040523d82523d5f602084013e611e16565b606091505b5091509150611e26868383611e30565b9695505050505050565b606082611e4557611e4082611e8c565b611d90565b8151158015611e5c57506001600160a01b0384163b155b15611e8557604051639996b31560e01b81526001600160a01b038516600482015260240161100f565b5080611d90565b805115611e9c5780518082602001fd5b604051630a12f52160e11b815260040160405180910390fd5b5f60208284031215611ec5575f80fd5b81356001600160e01b031981168114611d90575f80fd5b5f60208284031215611eec575f80fd5b5035919050565b80356001600160a01b0381168114611f09575f80fd5b919050565b5f8060408385031215611f1f575f80fd5b82359150611f2f60208401611ef3565b90509250929050565b5f8060408385031215611f49575f80fd5b611f5283611ef3565b9150611f2f60208401611ef3565b5f8060408385031215611f71575f80fd5b611f7a83611ef3565b946020939093013593505050565b5f60208284031215611f98575f80fd5b611d9082611ef3565b5f805f60608486031215611fb3575f80fd5b611fbc84611ef3565b95602085013595506040909401359392505050565b5f805f60408486031215611fe3575f80fd5b83359250602084013567ffffffffffffffff811115612000575f80fd5b8401601f81018613612010575f80fd5b803567ffffffffffffffff811115612026575f80fd5b8660208260051b840101111561203a575f80fd5b939660209190910195509293505050565b602081525f82518060208401528060208501604085015e5f604082850101526040601f19601f83011684010191505092915050565b634e487b7160e01b5f52602160045260245ffd5b634e487b7160e01b5f52601160045260245ffd5b818103818111156108a8576108a8612094565b634e487b7160e01b5f52604160045260245ffd5b634e487b7160e01b5f52603260045260245ffd5b808201808211156108a8576108a8612094565b5f60a0820187835286602084015260a0604084015280865180835260c0850191506020880192505f5b818110156121465783516001600160a01b031683526020938401939092019160010161211f565b50506001600160a01b039590951660608401525050608001529392505050565b5f60208284031215612176575f80fd5b815167ffffffffffffffff81111561218c575f80fd5b8201601f8101841361219c575f80fd5b805167ffffffffffffffff8111156121b6576121b66120bb565b8060051b604051601f19603f830116810181811067ffffffffffffffff821117156121e3576121e36120bb565b604052918252602081840181019290810187841115612200575f80fd5b6020850194505b8385101561222357845180825260209586019590935001612207565b509695505050505050565b83815260406020820181905281018290525f8360608301825b85811015612223576001600160a01b0361226084611ef3565b16825260209283019290910190600101612247565b634e487b7160e01b5f52601260045260245ffd5b805169ffffffffffffffffffff81168114611f09575f80fd5b5f805f805f60a086880312156122b6575f80fd5b6122bf86612289565b602087015160408801516060890151929750909550935091506122e460808701612289565b90509295509295909350565b5f60208284031215612300575f80fd5b81518015158114611d90575f80fd5b5f82518060208501845e5f92019182525091905056fea2646970667358221220df90bdade764b17db49f036a43617d44109c02fbca21c0b5a720607e7309f7d664736f6c634300081a0033","linkReferences":{}},"methodIdentifiers":{"DEFAULT_ADMIN_ROLE()":"a217fddf","ETH_USD_FEED()":"94d8572a","FEED_DECIMALS()":"679c1eda","MAX_SLIPPAGE_BPS()":"e229cd76","MIN_SLIPPAGE_BPS()":"19530a82","ORACLE_HEARTBEAT()":"4a83c3b7","PAUSER_ROLE()":"e63ab1e9","TREASURER_ROLE()":"f0a3a97c","UNISWAP_ROUTER()":"d8264920","USDC()":"89a30271","USD_DECIMALS()":"2f6ee695","VERSION()":"ffa1ad74","WITHDRAWAL_THRESHOLD_USD6()":"6ebbaa85","depositETH()":"f6326fb3","depositToken(address,uint256,uint256)":"99c6d2de","depositUSDC(uint256)":"f688bcfb","getBalanceUSD6(address,address)":"49a42246","getETHPrice()":"a607a8d9","getMinAmountOut(uint256,address[])":"eeecc08a","getRoleAdmin(bytes32)":"248a9ca3","getTotalBalanceUSD6(address)":"90f9e028","grantRole(bytes32,address)":"2f2ff15d","hasRole(bytes32,address)":"91d14854","pause()":"8456cb59","paused()":"5c975abb","previewETHToUSD6(uint256)":"e52c69c3","previewUSD6ToETH(uint256)":"7608d289","renounceRole(bytes32,address)":"36568abe","rescue(address,uint256)":"7a4e4ecf","revokeRole(bytes32,address)":"d547741f","s_bankCapUSD6()":"881c36d3","s_defaultSlippageBps()":"9d7ade00","s_depositCount()":"cac2e25f","s_swapCount()":"a56fe88e","s_totalUSD6()":"5eb432f1","s_withdrawCount()":"78234a3b","setBankCapUSD6(uint256)":"4a4ba768","setDefaultSlippage(uint256)":"44bd1afd","supportsInterface(bytes4)":"01ffc9a7","unpause()":"3f4ba83a","withdrawETH(uint256)":"f14210a6","withdrawUSDC(uint256)":"db81f99b"},"storageLayout":{"storage":[{"astId":39855,"contract":"src/KipuBankV3.sol:KipuBankV3","label":"_roles","offset":0,"slot":"0","type":"t_mapping(t_bytes32,t_struct(RoleData)39850_storage)"},{"astId":41614,"contract":"src/KipuBankV3.sol:KipuBankV3","label":"_paused","offset":0,"slot":"1","type":"t_bool"},{"astId":41733,"contract":"src/KipuBankV3.sol:KipuBankV3","label":"_status","offset":0,"slot":"2","type":"t_uint256"},{"astId":42906,"contract":"src/KipuBankV3.sol:KipuBankV3","label":"s_balances","offset":0,"slot":"3","type":"t_mapping(t_address,t_mapping(t_address,t_uint256))"},{"astId":42909,"contract":"src/KipuBankV3.sol:KipuBankV3","label":"s_totalUSD6","offset":0,"slot":"4","type":"t_uint256"},{"astId":42912,"contract":"src/KipuBankV3.sol:KipuBankV3","label":"s_bankCapUSD6","offset":0,"slot":"5","type":"t_uint256"},{"astId":42915,"contract":"src/KipuBankV3.sol:KipuBankV3","label":"s_defaultSlippageBps","offset":0,"slot":"6","type":"t_uint256"},{"astId":42918,"contract":"src/KipuBankV3.sol:KipuBankV3","label":"s_depositCount","offset":0,"slot":"7","type":"t_uint256"},{"astId":42920,"contract":"src/KipuBankV3.sol:KipuBankV3","label":"s_withdrawCount","offset":0,"slot":"8","type":"t_uint256"},{"astId":42922,"contract":"src/KipuBankV3.sol:KipuBankV3","label":"s_swapCount","offset":0,"slot":"9","type":"t_uint256"}],"types":{"t_address":{"encoding":"inplace","label":"address","numberOfBytes":"20"},"t_bool":{"encoding":"inplace","label":"bool","numberOfBytes":"1"},"t_bytes32":{"encoding":"inplace","label":"bytes32","numberOfBytes":"32"},"t_mapping(t_address,t_bool)":{"encoding":"mapping","key":"t_address","label":"mapping(address => bool)","numberOfBytes":"32","value":"t_bool"},"t_mapping(t_address,t_mapping(t_address,t_uint256))":{"encoding":"mapping","key":"t_address","label":"mapping(address => mapping(address => uint256))","numberOfBytes":"32","value":"t_mapping(t_address,t_uint256)"},"t_mapping(t_address,t_uint256)":{"encoding":"mapping","key":"t_address","label":"mapping(address => uint256)","numberOfBytes":"32","value":"t_uint256"},"t_mapping(t_bytes32,t_struct(RoleData)39850_storage)":{"encoding":"mapping","key":"t_bytes32","label":"mapping(bytes32 => struct AccessControl.RoleData)","numberOfBytes":"32","value":"t_struct(RoleData)39850_storage"},"t_struct(RoleData)39850_storage":{"encoding":"inplace","label":"struct AccessControl.RoleData","numberOfBytes":"64","members":[{"astId":39847,"contract":"src/KipuBankV3.sol:KipuBankV3","label":"hasRole","offset":0,"slot":"0","type":"t_mapping(t_address,t_bool)"},{"astId":39849,"contract":"src/KipuBankV3.sol:KipuBankV3","label":"adminRole","offset":0,"slot":"1","type":"t_bytes32"}]},"t_uint256":{"encoding":"inplace","label":"uint256","numberOfBytes":"32"}}},"id":36}